:100000000C942A000C9447000C9447000C94470071
:100010000C9447000C946B070C9447000C94470019
:100020000C9447000C9447000C945C070C94470018
:100030000C9447000C9447000C9447000C94470024
:100040000C9447000C9447000C9447000C94470014
:100050000C94470011241FBECFE5D8E0DEBFCDBF12
:1000600010E0A0E6B0E0E8E6F0E102C005900D92F5
:10007000AA3FB107D9F710E0AAEFB0E001C01D9286
:10008000AF3FB107E1F70E9421060C9432080C94AF
:100090000000843409F471C0853448F4823499F145
:1000A000833408F04DC0813409F083C00FC082361C
:1000B00051F1833620F4813609F07BC007C08336C6
:1000C00009F43EC0843609F074C057C0413069F469
:1000D0002AB381E090E0AC0102C0440F551F6A953D
:1000E000E2F7BA01622B6ABB08952AB381E090E07F
:1000F000AC0102C0440F551F6A95E2F7BA01609542
:1001000062236ABB0895413069F427B381E090E02F
:10011000AC0102C0440F551F6A95E2F7BA01622B89
:1001200067BB089527B381E090E0AC0102C0440FA3
:10013000551F6A95E2F7BA016095622367BB08957F
:10014000413069F424B381E090E0AC0102C0440F77
:10015000551F6A95E2F7BA01622B64BB089524B378
:1001600081E090E0AC0102C0440F551F6A95E2F7B0
:10017000BA016095622364BB0895413069F421B3EC
:1001800081E090E0AC0102C0440F551F6A95E2F790
:10019000BA01622B61BB089521B381E090E0AC010C
:1001A00002C0440F551F6A95E2F7BA0160956223B9
:1001B00061BB0895843409F471C0853448F48234F5
:1001C00099F1833408F04DC0813409F083C00FC029
:1001D000823651F1833620F4813609F07BC007C0A6
:1001E000833609F43EC0843609F074C057C04130EC
:1001F00069F42BB381E090E0AC0102C0440F551FBD
:100200006A95E2F7BA01622B6BBB08952BB381E0CC
:1002100090E0AC0102C0440F551F6A95E2F7BA01A5
:10022000609562236BBB0895413069F428B381E087
:1002300090E0AC0102C0440F551F6A95E2F7BA0185
:10024000622B68BB089528B381E090E0AC0102C046
:10025000440F551F6A95E2F7BA016095622368BBA7
:100260000895413069F425B381E090E0AC0102C00B
:10027000440F551F6A95E2F7BA01622B65BB0895DA
:1002800025B381E090E0AC0102C0440F551F6A9590
:10029000E2F7BA016095622365BB0895413069F4C5
:1002A00022B381E090E0AC0102C0440F551F6A9573
:1002B000E2F7BA01622B62BB089522B381E090E0BD
:1002C000AC0102C0440F551F6A95E2F7BA01609570
:1002D000622362BB0895843409F43DC0853440F440
:1002E0008234F9F0833450F5813409F040C00CC0F9
:1002F0008236B9F0833618F48136C9F505C08336E5
:10030000E9F08436A1F527C02BB381E090E0AC0181
:1003100002C0440F551F6A95E2F7BA0162276BBB12
:10032000089528B381E090E0AC0102C0440F551F4E
:100330006A95E2F7BA01622768BB089525B381E0A8
:1003400090E0AC0102C0440F551F6A95E2F7BA0174
:10035000622765BB089522B381E090E0AC0102C042
:10036000440F551F6A95E2F7BA01622762BB0895F0
:10037000843409F44EC0853440F4823431F183343E
:10038000B0F5813409F057C00EC08236F1F08336E3
:1003900020F4813609F04FC006C0833641F184361F
:1003A00009F049C036C029B381E090E0062E02C0B2
:1003B000880F991F0A94E2F730E08223932302C04A
:1003C000959587956A95E2F7089526B381E090E0C8
:1003D000062E02C0880F991F0A94E2F730E08223AC
:1003E000932302C0959587956A95E2F7089523B304
:1003F00081E090E0062E02C0880F991F0A94E2F770
:1004000030E08223932302C0959587956A95E2F7A1
:10041000089520B381E090E0062E02C0880F991F56
:100420000A94E2F730E08223932302C095958795E2
:100430006A95E2F7089508958434D9F0853438F444
:10044000823499F0833498F48134A1F40CC082365C
:1004500061F0833618F4813669F405C0833639F0CB
:10046000843641F406C06ABB089567BB089564BB37
:10047000089561BB08958434D9F0853438F482340A
:1004800099F0833498F48134A1F40CC0823661F081
:10049000833618F4813669F405C0833639F0843622
:1004A00041F406C06BBB089568BB089565BB089511
:1004B00062BB0895843409F1853438F48234A9F09C
:1004C0008334B8F48134E1F40CC0823671F08336A1
:1004D00018F48136A9F405C0833659F0843681F4C6
:1004E0000CC08BB380958BBB089588B3809588BB77
:1004F000089585B3809585BB089582B3809582BBAE
:1005000008958434D9F0853438F4823499F08334F2
:1005100098F48134A9F40CC0823661F0833618F463
:10052000813671F405C0833639F0843649F406C04B
:1005300089B3089586B3089583B3089580B3089569
:1005400008956295607F843451F1853438F48234A3
:10055000C1F08334E8F4813441F50CC0823689F06F
:10056000833618F4813609F505C0833689F0843660
:10057000E1F415C08BB38F708BBB8BB3682B6BBB57
:10058000089588B38F7088BB88B3682B68BB0895C3
:1005900085B38F7085BB85B3682B65BB089582B327
:1005A0008F7082BB82B3682B62BB0895843451F193
:1005B000853438F48234C1F08334E8F4813441F571
:1005C0000CC0823689F0833618F4813609F505C0EF
:1005D000833689F08436E1F415C08BB3807F8BBB02
:1005E0008BB3682B6BBB089588B3807F88BB88B3BF
:1005F000682B68BB089585B3807F85BB85B3682B66
:1006000065BB089582B3807F82BB82B3682B62BBD7
:100610000895843409F471C0853448F4823499F122
:10062000833408F04DC0813409F083C00FC0823696
:1006300051F1833620F4813609F07BC007C0833640
:1006400009F43EC0843609F074C057C0413069F4E3
:100650002BB381E090E0AC0102C0440F551F6A95B6
:10066000E2F7BA01622B6BBB08952BB381E090E0F7
:10067000AC0102C0440F551F6A95E2F7BA016095BC
:1006800062236BBB0895413069F428B381E090E0A8
:10069000AC0102C0440F551F6A95E2F7BA01622B04
:1006A00068BB089528B381E090E0AC0102C0440F1C
:1006B000551F6A95E2F7BA016095622368BB0895F9
:1006C000413069F425B381E090E0AC0102C0440FF1
:1006D000551F6A95E2F7BA01622B65BB089525B3F1
:1006E00081E090E0AC0102C0440F551F6A95E2F72B
:1006F000BA016095622365BB0895413069F422B365
:1007000081E090E0AC0102C0440F551F6A95E2F70A
:10071000BA01622B62BB089522B381E090E0AC0184
:1007200002C0440F551F6A95E2F7BA016095622333
:1007300062BB089584E46FE00E941C0284E467E0D9
:1007400041E00E94090384E466E041E00E9409035D
:1007500084E465E041E00E94090384E464E041E050
:100760000E94090308950F931F93CF93DF93CDB792
:10077000DEB760970FB6F894DEBF0FBECDBFDE01C7
:100780001196E0E6F0E080E101900D928150E1F7F2
:1007900000E084E46FEF0E94D60284E4602F40E022
:1007A0000E94DA0010E0612F6C5F84E40E94B801BF
:1007B000882361F4E02FF0E0EE0FFF1FEE0FFF1F24
:1007C000E10FF11DEC0FFD1F818104C01F5F14308C
:1007D00051F70BC060960FB6F894DEBF0FBECDBFC9
:1007E000DF91CF911F910F9108950F5F043089F62B
:1007F0008FEFF0CF81E490E060E070E041E050E006
:100800000E94DA0083EF91E00197F1F700C0000049
:1008100081E490E060E070E040E050E00E94DA00A7
:1008200083EF91E00197F1F700C000000895CF93A6
:10083000C82F682F62956F7081E490E070E00E948D
:10084000A10281E490E062E070E040E050E00E94AC
:10085000DA000E94FA0381E490E06C2F70E00E94BD
:10086000A10281E490E062E070E040E050E00E948C
:10087000DA000E94FA0389EF90E00197F1F700C0D7
:100880000000CF91089581E490E064E070E041E0E1
:1008900050E00E94490081E490E065E070E041E0B2
:1008A00050E00E94490081E490E066E070E041E0A1
:1008B00050E00E94490081E490E067E070E041E090
:1008C00050E00E94490081E490E060E070E041E087
:1008D00050E00E94490081E490E062E070E041E075
:1008E00050E00E94490081E490E061E070E041E066
:1008F00050E00E94490081E490E061E070E040E057
:1009000050E00E94DA0082E00E94170483EC99E034
:100910000197F1F700C0000088E20E94170489EFF8
:1009200090E00197F1F700C000008EE00E941704EC
:1009300089EF90E00197F1F700C0000081E00E948C
:10094000170483EC99E00197F1F700C0000086E0FE
:100950000E94170489EF90E00197F1F700C00000B2
:100960000895CF93C82F682F62956F7081E490E04F
:1009700070E00E94A10281E490E062E070E041E05A
:1009800050E00E94DA000E94FA0381E490E06C2FAC
:1009900070E00E94A10281E490E062E070E041E03A
:1009A00050E00E94DA000E94FA03CF910895CF939D
:1009B000DF93EC018881882331F021960E94B104F5
:1009C00089918823D9F7DF91CF91089581E00E9422
:1009D000170483EC99E00197F1F700C00000089537
:1009E000813019F4862F815806C0823019F4862F81
:1009F000815401C080E80E94170489EF90E00197BC
:100A0000F1F700C000000895CF93DF93EC0183E479
:100A100090E06FE170E00E943B028A816AE00E94F0
:100A2000040882E4692F0E94C6078091FE00882393
:100A3000E1F31092FE0083E490E06FE270E00E9428
:100A40003B028A816AE00E940408682F82E40E94C7
:100A5000C6078091FE008823E1F31092FE0083E434
:100A600090E067E370E00E943B0289816AE00E94A7
:100A7000040882E4692F0E94C6078091FE00882343
:100A8000E1F31092FE0083E490E06BE370E00E94DB
:100A90003B0289816AE00E940408682F82E40E9478
:100AA000C6078091FE008823E1F31092FE0083E4E4
:100AB00090E06DE370E00E943B0288816AE00E9452
:100AC000040882E4692F0E94C6078091FE008823F3
:100AD000E1F31092FE0083E490E06EE370E00E9488
:100AE0003B0288816AE00E940408682F82E40E9429
:100AF000C6078091FE008823E1F31092FE00DF918B
:100B0000CF910895E091EE00F091EF0082818C3357
:100B100040F081818F5F8183E091EE00F091EF00E2
:100B20001282E091EE00F091EF0081818C3340F071
:100B300080818F5F8083E091EE00F091EF00118261
:100B4000E091EE00F091EF008081883108F0108292
:100B50008091EE009091EF000E9404050895CF92DD
:100B6000DF92EF92FF920F931F93CF93DF93DC01FD
:100B7000CB018093FA009093FB00A093FC00B0930C
:100B8000FD00C091EE00D091EF006091FA007091ED
:100B9000FB008091FC009091FD0020E13EE040E0F0
:100BA00050E00E9410082883C091EE00D091EF0021
:100BB000C090FA00D090FB00E090FC00F090FD00A7
:100BC000288130E080E19EE0289FA001299F500D00
:100BD000389F500D1124662757FD6095762F970199
:100BE0008601041B150B260B370BC901B8012CE33A
:100BF00030E040E050E00E9410082983E091EE00D0
:100C0000F091EF004091FA005091FB006091FC00E0
:100C10007091FD00808191818295807F481B8CE3DB
:100C2000989F802D1124481B4283CF010E94040508
:100C3000DF91CF911F910F91FF90EF90DF90CF90B8
:100C400008950E94430480E790E00E94D7040E9428
:100C50009A0382E40E949B0783E490E06FE370E0D4
:100C60000E941C0278940E94E8070E94F7070F2E4A
:100C7000FDE7AF2EF0E0BF2EF02D0F2EFCE88F2EFB
:100C8000F0E09F2EF02D0F2EF7EB6F2EF0E07F2E71
:100C9000F02D0F2EFEEB4F2EF0E05F2EF02D0F2EDD
:100CA000F6EC2F2EF0E03F2EF02D0E94E604C50159
:100CB0000E94D70482E061E00E94F004C4010E9417
:100CC000D7040E94B3038F3FE1F3823309F065C07C
:100CD0000E94E60481EA90E00E94D70482E061E08D
:100CE0000E94F0048CEA90E00E94D7041092FA006F
:100CF0001092FB001092FC001092FD000E94B303C2
:100D00008134D9F58FEF94E6A4E081509040A04063
:100D1000E1F700C00000C090FA00D090FB00E09026
:100D2000FC00F090FD000E94E604C3010E94D7047D
:100D300082E061E00E94F004C2010E94D704C70172
:100D4000B6010E94AF050E94B3038134C1F78FEF53
:100D500094E6A4E081509040A040E1F700C000007C
:100D6000C092FA00D092FB00E092FC00F092FD00ED
:100D70000E94E604C1010E94D7040E94B30380339D
:100D800009F493CF6091FA007091FB008091FC0010
:100D90009091FD000E94AF05B1CF813309F091CF52
:100DA0000E94E6048BEC90E00E94D7048FEF91EE56
:100DB000A4E081509040A040E1F700C0000012E0A4
:100DC000D0E00E94B303C82F90E0C0978A3091050D
:100DD00064F4DD0F8D2F880F880FD80F8C2F805370
:100DE000D80F8C2F0E94B10403C0C03309F45DCF2B
:100DF000CF3F39F38FE79AE1A6E081509040A040C1
:100E0000E1F700C000001150E1F6E091EE00F09132
:100E1000EF00D0830E94E60483ED90E00E94D704A7
:100E20008FEF91EEA4E081509040A040E1F700C028
:100E3000000012E0D0E00E94B303C82F90E0C097FA
:100E40008A30910564F4DD0F8D2F880F880FD80F3D
:100E50008C2F8053D80F8C2F0E94B10403C0C03355
:100E600009F423CFCF3F39F38FE79AE1A6E0815011
:100E70009040A040E1F700C000001150E1F6E09181
:100E8000EE00F091EF00D183E091EE00F091EF00E1
:100E900012820E94E6048DED90E00E94D7040E9429
:100EA000B303813431F4E091EE00F091EF0012824F
:100EB000FCCE0E948205F3CF1F920F920FB60F92C5
:100EC00011248F9381E08093FE008F910F900FBECD
:100ED0000F901F9018951F920F920FB60F9211242A
:100EE0008F939F93AF93BF93EF93FF93E091EE00A7
:100EF000F091EF0082818F5F82838091FA00909160
:100F0000FB00A091FC00B091FD000196A11DB11D58
:100F10008093FA009093FB00A093FC00B093FD0037
:100F2000FF91EF91BF91AF919F918F910F900FBE65
:100F30000F901F901895843421F1853438F4823451
:100F4000B1F08334C8F4813401F50CC0823679F0F5
:100F5000833618F48136C9F405C0833669F08436C7
:100F6000A1F40FC081E46FEF0E941C02089582E497
:100F70006FEF0E941C02089583E46FEF0E941C0231
:100F8000089584E46FEF0E941C020895CF93DF93CD
:100F9000CDB7DEB72A970FB6F894DEBF0FBECDBF30
:100FA000DE011196E0EFF0E09AE001900D92915091
:100FB000E1F7FE01E60FF11D61810E943B022A96D6
:100FC0000FB6F894DEBF0FBECDBFDF91CF9108956D
:100FD00083B7886083BF88E28CBF83B7846083BF98
:100FE00083B7816083BF89B7826089BF089582B566
:100FF000886082BD85B5816085BD85B5846085BD0D
:1010000089B7806489BF0895991B79E004C0991F4E
:10101000961708F0961B881F7A95C9F78095089552
:10102000A1E21A2EAA1BBB1BFD010DC0AA1FBB1FEC
:10103000EE1FFF1FA217B307E407F50720F0A21B5E
:10104000B30BE40BF50B661F771F881F991F1A94CB
:1010500069F760957095809590959B01AC01BD01F5
:08106000CF010895F894FFCFC1
:101068003738392F343536783132332D41303D2BEE
:1010780048656C6C6F2C20576F726C64003120745B
:101088006F2073657420636C6F636B003220746F1C
:101098002073746172742073746F707761746368FD
:1010A800003020746F207265736574004120746F7E
:1010B8002070617573650050415553454400507266
:1010C8006573732041004241434B00686F7572732A
:1010D8003A20004D696E757465733A200050726548
:1010E8007373204120746F20526573657400000388
:0A10F8003F065B4F666D7D077F6FBA
:00000001FF
