S01700005265616C2D54696D652D436C6F636B2E73726563B4
S11300000C942A000C9447000C9447000C9447006D
S11300100C9447000C9400060C9447000C94470081
S11300200C9447000C9447000C94F1050C94470081
S11300300C9447000C9447000C9447000C94470020
S11300400C9447000C9447000C9447000C94470010
S11300500C94470011241FBECFE5D8E0DEBFCDBF0E
S113006010E0A0E6B0E0ECE7FDE002C005900D92E0
S1130070AA37B107D9F710E0AAE7B0E001C01D9292
S1130080AF37B107E1F70E94CC050C94BC060C9481
S11300900000843409F471C0853448F4823499F141
S11300A0833408F04DC0813409F083C00FC0823618
S11300B051F1833620F4813609F07BC007C08336C2
S11300C009F43EC0843609F074C057C0413069F465
S11300D02AB381E090E0AC0102C0440F551F6A9539
S11300E0E2F7BA01622B6ABB08952AB381E090E07B
S11300F0AC0102C0440F551F6A95E2F7BA0160953E
S113010062236ABB0895413069F427B381E090E02B
S1130110AC0102C0440F551F6A95E2F7BA01622B85
S113012067BB089527B381E090E0AC0102C0440F9F
S1130130551F6A95E2F7BA016095622367BB08957B
S1130140413069F424B381E090E0AC0102C0440F73
S1130150551F6A95E2F7BA01622B64BB089524B374
S113016081E090E0AC0102C0440F551F6A95E2F7AC
S1130170BA016095622364BB0895413069F421B3E8
S113018081E090E0AC0102C0440F551F6A95E2F78C
S1130190BA01622B61BB089521B381E090E0AC0108
S11301A002C0440F551F6A95E2F7BA0160956223B5
S11301B061BB0895843409F471C0853448F48234F1
S11301C099F1833408F04DC0813409F083C00FC025
S11301D0823651F1833620F4813609F07BC007C0A2
S11301E0833609F43EC0843609F074C057C04130E8
S11301F069F42BB381E090E0AC0102C0440F551FB9
S11302006A95E2F7BA01622B6BBB08952BB381E0C8
S113021090E0AC0102C0440F551F6A95E2F7BA01A1
S1130220609562236BBB0895413069F428B381E083
S113023090E0AC0102C0440F551F6A95E2F7BA0181
S1130240622B68BB089528B381E090E0AC0102C042
S1130250440F551F6A95E2F7BA016095622368BBA3
S11302600895413069F425B381E090E0AC0102C007
S1130270440F551F6A95E2F7BA01622B65BB0895D6
S113028025B381E090E0AC0102C0440F551F6A958C
S1130290E2F7BA016095622365BB0895413069F4C1
S11302A022B381E090E0AC0102C0440F551F6A956F
S11302B0E2F7BA01622B62BB089522B381E090E0B9
S11302C0AC0102C0440F551F6A95E2F7BA0160956C
S11302D0622362BB0895843409F43DC0853440F43C
S11302E08234F9F0833450F5813409F040C00CC0F5
S11302F08236B9F0833618F48136C9F505C08336E1
S1130300E9F08436A1F527C02BB381E090E0AC017D
S113031002C0440F551F6A95E2F7BA0162276BBB0E
S1130320089528B381E090E0AC0102C0440F551F4A
S11303306A95E2F7BA01622768BB089525B381E0A4
S113034090E0AC0102C0440F551F6A95E2F7BA0170
S1130350622765BB089522B381E090E0AC0102C03E
S1130360440F551F6A95E2F7BA01622762BB0895EC
S1130370843409F44EC0853440F4823431F183343A
S1130380B0F5813409F057C00EC08236F1F08336DF
S113039020F4813609F04FC006C0833641F184361B
S11303A009F049C036C029B381E090E0062E02C0AE
S11303B0880F991F0A94E2F730E08223932302C046
S11303C0959587956A95E2F7089526B381E090E0C4
S11303D0062E02C0880F991F0A94E2F730E08223A8
S11303E0932302C0959587956A95E2F7089523B300
S11303F081E090E0062E02C0880F991F0A94E2F76C
S113040030E08223932302C0959587956A95E2F79D
S1130410089520B381E090E0062E02C0880F991F52
S11304200A94E2F730E08223932302C095958795DE
S11304306A95E2F7089508958434D9F0853438F440
S1130440823499F0833498F48134A1F40CC0823658
S113045061F0833618F4813669F405C0833639F0C7
S1130460843641F406C06ABB089567BB089564BB33
S1130470089561BB08958434D9F0853438F4823406
S113048099F0833498F48134A1F40CC0823661F07D
S1130490833618F4813669F405C0833639F084361E
S11304A041F406C06BBB089568BB089565BB08950D
S11304B062BB0895843409F1853438F48234A9F098
S11304C08334B8F48134E1F40CC0823671F083369D
S11304D018F48136A9F405C0833659F0843681F4C2
S11304E00CC08BB380958BBB089588B3809588BB73
S11304F0089585B3809585BB089582B3809582BBAA
S113050008958434D9F0853438F4823499F08334EE
S113051098F48134A9F40CC0823661F0833618F45F
S1130520813671F405C0833639F0843649F406C047
S113053089B3089586B3089583B3089580B3089565
S113054008956295607F843451F1853438F482349F
S1130550C1F08334E8F4813441F50CC0823689F06B
S1130560833618F4813609F505C0833689F084365C
S1130570E1F415C08BB38F708BBB8BB3682B6BBB53
S1130580089588B38F7088BB88B3682B68BB0895BF
S113059085B38F7085BB85B3682B65BB089582B323
S11305A08F7082BB82B3682B62BB0895843451F18F
S11305B0853438F48234C1F08334E8F4813441F56D
S11305C00CC0823689F0833618F4813609F505C0EB
S11305D0833689F08436E1F415C08BB3807F8BBBFE
S11305E08BB3682B6BBB089588B3807F88BB88B3BB
S11305F0682B68BB089585B3807F85BB85B3682B62
S113060065BB089582B3807F82BB82B3682B62BBD3
S11306100895843409F471C0853448F4823499F11E
S1130620833408F04DC0813409F083C00FC0823692
S113063051F1833620F4813609F07BC007C083363C
S113064009F43EC0843609F074C057C0413069F4DF
S11306502BB381E090E0AC0102C0440F551F6A95B2
S1130660E2F7BA01622B6BBB08952BB381E090E0F3
S1130670AC0102C0440F551F6A95E2F7BA016095B8
S113068062236BBB0895413069F428B381E090E0A4
S1130690AC0102C0440F551F6A95E2F7BA01622B00
S11306A068BB089528B381E090E0AC0102C0440F18
S11306B0551F6A95E2F7BA016095622368BB0895F5
S11306C0413069F425B381E090E0AC0102C0440FED
S11306D0551F6A95E2F7BA01622B65BB089525B3ED
S11306E081E090E0AC0102C0440F551F6A95E2F727
S11306F0BA016095622365BB0895413069F422B361
S113070081E090E0AC0102C0440F551F6A95E2F706
S1130710BA01622B62BB089522B381E090E0AC0180
S113072002C0440F551F6A95E2F7BA01609562232F
S113073062BB089583E46FE00E941C0283E467E0D7
S113074041E00E94090383E466E041E00E9409035A
S113075083E465E041E00E94090383E464E041E04E
S11307600E94090308950F931F93CF93DF93CDB78E
S1130770DEB760970FB6F894DEBF0FBECDBFDE01C3
S11307801196E0E6F0E080E101900D928150E1F7EE
S113079000E083E46FEF0E94D60283E4602F40E020
S11307A00E94DA0010E0612F6C5F83E40E94B801BC
S11307B0882361F4E02FF0E0EE0FFF1FEE0FFF1F20
S11307C0E10FF11DEC0FFD1F818104C01F5F143088
S11307D051F70BC060960FB6F894DEBF0FBECDBFC5
S11307E0DF91CF911F910F9108950F5F043089F627
S11307F08FEFF0CF82E490E060E070E041E050E001
S11308000E94DA0083EF91E00197F1F700C0000045
S113081082E490E060E070E040E050E00E94DA00A2
S113082083EF91E00197F1F700C000000895CF93A2
S1130830C82F682F62956F7081E490E070E00E9489
S1130840A10282E490E062E070E040E050E00E94A7
S1130850DA000E94FA0381E490E06C2F70E00E94B9
S1130860A10282E490E062E070E040E050E00E9487
S1130870DA000E94FA0389EF90E00197F1F700C0D3
S11308800000CF91089581E490E064E070E041E0DD
S113089050E00E94490081E490E065E070E041E0AE
S11308A050E00E94490081E490E066E070E041E09D
S11308B050E00E94490081E490E067E070E041E08C
S11308C050E00E94490082E490E060E070E041E082
S11308D050E00E94490082E490E062E070E041E070
S11308E050E00E94490082E490E061E070E041E061
S11308F050E00E94490082E490E061E070E040E052
S113090050E00E94DA0082E00E94170483EC99E030
S11309100197F1F700C0000088E20E94170489EFF4
S113092090E00197F1F700C000008EE00E941704E8
S113093089EF90E00197F1F700C0000081E00E9488
S1130940170483EC99E00197F1F700C0000086E0FA
S11309500E94170489EF90E00197F1F700C00000AE
S11309600895CF93C82F682F62956F7081E490E04B
S113097070E00E94A10282E490E062E070E041E055
S113098050E00E94DA000E94FA0381E490E06C2FA8
S113099070E00E94A10282E490E062E070E041E035
S11309A050E00E94DA000E94FA03CF910895CF9399
S11309B0DF93EC018881882331F021960E94B104F1
S11309C089918823D9F7DF91CF91089581E00E941E
S11309D0170483EC99E00197F1F700C00000089533
S11309E0813019F4862F815806C0823019F4862F7D
S11309F0815401C080E80E94170489EF90E00197B8
S1130A00F1F700C000000895CF93DF93EC0183E475
S1130A1090E06FE170E00E943B028A816AE00E94EC
S1130A208E0682E4692F0E94500680917E008823FE
S1130A30E1F310927E0083E490E06FE270E00E94A4
S1130A403B028A816AE00E948E06682F82E40E943B
S1130A50500680917E008823E1F310927E0083E4A7
S1130A6090E067E370E00E943B0289816AE00E94A3
S1130A708E0682E4692F0E94500680917E008823AE
S1130A80E1F310927E0083E490E06BE370E00E9457
S1130A903B0289816AE00E948E06682F82E40E94EC
S1130AA0500680917E008823E1F310927E0083E457
S1130AB090E06DE370E00E943B0288816AE00E944E
S1130AC08E0682E4692F0E94500680917E0088235E
S1130AD0E1F310927E0083E490E06EE370E00E9404
S1130AE03B0288816AE00E948E06682F82E40E949D
S1130AF0500680917E008823E1F310927E00DF91FE
S1130B00CF9108958F929F92AF92BF92CF92DF922E
S1130B10EF92FF920F931F93CF936B017C018A0195
S1130B2020E13EE040E050E00E949A06C22FF80126
S1130B30208330E080E19EE0289FA001299F500D92
S1130B40389F500D1124662757FD6095762F460176
S1130B505701841A950AA60AB70AC501B4012CE301
S1130B6030E040E050E00E949A06F8012183C295EB
S1130B70C07FCC1A8CE3829F202D1124C21AC2821A
S1130B80CF911F910F91FF90EF90DF90CF90BF9086
S1130B90AF909F908F90089584E40E9425067894E6
S1130BA00E9472060E94810683E490E06FE370E085
S1130BB00E941C0282E490E06FEF70E00E941C022D
S1130BC060917A0070917B0080917C0090917D000F
S1130BD040E053E00E94820580E093E00E94040517
S1130BE0EFCF1F920F920FB60F9211248F9381E0D3
S1130BF080937E008F910F900FBE0F901F901895D9
S1130C001F920F920FB60F9211248F939F93AF935D
S1130C10BF9380917A0090917B00A0917C00B09169
S1130C207D000196A11DB11D80937A0090937B00F5
S1130C30A0937C00B0937D00BF91AF919F918F9161
S1130C400F900FBE0F901F901895843421F18534B6
S1130C5038F48234B1F08334C8F4813401F50CC023
S1130C60823679F0833618F48136C9F405C08336A8
S1130C7069F08436A1F40FC081E46FEF0E941C0276
S1130C80089582E46FEF0E941C02089583E46FEFDD
S1130C900E941C02089584E46FEF0E941C020895D0
S1130CA0CF93DF93CDB7DEB72A970FB6F894DEBFA4
S1130CB00FBECDBFDE011196E0E7F0E09AE00190AF
S1130CC00D929150E1F7FE01E60FF11D61810E9442
S1130CD03B022A960FB6F894DEBF0FBECDBFDF915C
S1130CE0CF91089583B7886083BF88E28CBF83B7B0
S1130CF0846083BF83B7816083BF89B7826089BF03
S1130D00089582B5886082BD85B5816085BD85B54D
S1130D10846085BD89B7806489BF0895991B79E093
S1130D2004C0991F961708F0961B881F7A95C9F777
S1130D3080950895A1E21A2EAA1BBB1BFD010DC0CC
S1130D40AA1FBB1FEE1FFF1FA217B307E407F50777
S1130D5020F0A21BB30BE40BF50B661F771F881F53
S1130D60991F1A9469F760957095809590959B01E9
S10F0D70AC01BD01CF010895F894FFCF41
S1130D7C3738392F343536783132332D41303D2BD9
S10D0D8C3F065B4F666D7D077F6F25
S9030000FC
